:020000040800F2
:10000000480C012059030008E345000805360008A4
:10001000E1450008111B0008915200080000000093
:10002000000000000000000000000000990200082D
:10003000211B000800000000F5020008594B0008D1
:1000400073030008730300087303000873030008B8
:1000500073030008730300087303000873030008A8
:100060007303000873030008730300087303000898
:100070007303000873030008730300087303000888
:1000800073030008730300087303000800000000F6
:1000900000000000000000000000000073030008E2
:1000A000730300081D4C0008730300087303000865
:1000B000294C000873030008730300087303000849
:1000C0007303000873030008730300087303000838
:1000D00073030008730300087303000800000000A6
:1000E0007303000873030008730300080000000096
:1000F0000000000000000000000000007303000882
:100100000000000073030008730300087303000875
:1001100000000000000000000000000000000000DF
:1001200073030008730300087303000873030008D7
:100130007303000800000000000000000000000041
:100140000000000000000000000000007303000831
:1001500073030008730300087303000873030008A7
:100160007303000873030008000000000000000093
:10017000000000000000000000000000000000007F
:1001800000000000730300080000000000000000F1
:10019000730300087303000800F002F800F06CF825
:1001A0000AA090E8000C82448344AAF10107DA45D2
:1001B00001D100F061F8AFF2090EBAE80F0013F0B8
:1001C000010F18BFFB1A43F001031847F4D70700CB
:1001D00014D807000A444FF0000C10F8013B13F04C
:1001E000070408BF10F8014B1D1108BF10F8015B90
:1001F000641E05D010F8016B641E01F8016BF9D183
:1002000013F0080F1EBF10F8014BAD1C0C1B09D1D9
:100210006D1E58BF01F801CBFAD505E014F8016B4B
:1002200001F8016B6D1EF9D59142D6D370470000DD
:100230000023002400250026103A28BF78C1FBD8EF
:10024000520728BF30C148BF0B607047662926F0AF
:100250005882642900F05481002070471FB526F0B1
:1002600046FA00F005FE04000020002125F074FD90
:10027000E0601FBD10B510BD00F0FEFE1146FFF797
:10028000EDFF1FF03FFF00F01CFF03B4FFF7F2FF8C
:1002900003BC00F01FFF00002C4B19680868B0E891
:1002A000F04F80F30988BFF36F8F4FF0000080F3A9
:1002B000118870470000000008480068006880F35B
:1002C00008884FF0000080F3148862B661B6BFF36F
:1002D0004F8FBFF36F8F00DF00BF00BF08ED00E05E
:1002E000DFF80C00016841F470010160704700BF45
:1002F00088ED00E0EFF30980BFF36F8F134B1A68AE
:100300001EF0100F08BF20ED108A20E9F04F10609A
:1003100009B44FF0500080F31188BFF34F8FBFF343
:100320006F8F24F081FF4FF0000080F3118809BC2B
:1003300019680868B0E8F04F1EF0100F08BFB0EC65
:10034000108A80F30988BFF36F8F70477400002014
:10035000EFF30580704700000948804709480047CF
:10036000FEE7FEE7FEE7FEE7FEE7FEE7FEE7FEE765
:10037000FEE7FEE704480549054A064B70470000C2
:100380000D4C00089901000848060120480C012086
:10039000480801204808012053EA020C00F0698057
:1003A0002DE9F04B4FF00006002B1FBFB3FA83F589
:1003B00003FA05F424FA05F65E4012BF1643B2FABA
:1003C00082F502FA05F4C5F120051EBF22FA05FCEC
:1003D00044EA0C04203556EA044C4FEA144418BF92
:1003E000641C4FF000084FF00009904271EB030CC1
:1003F00039D3002919BFB1FA81F701FA07F6B0FA2B
:1004000080F700FA07F6C7F120071EBF20FA07FCA5
:1004100046EA0C062037B6FBF4FCA7EB0507103FB5
:1004200007F01F0BCBF120060CFA0BFB2CFA06F69B
:1004300044BFB3460026202FA4BF5E464FF0000BFA
:100440005BEA060C08BF4FF0010B19EB0B09ABFB85
:10045000027C48EB0608C01B06FB02CC0BFB03CC5E
:1004600071EB0C01C1E70B46024641464846BDE828
:10047000F08B13B54FF000004FF00001AFF3008098
:10048000BDE81C40704700000FB41CB5074B06AA1E
:100490007B4469460090059800F0AFFC0020694657
:1004A00000F0BEFC1CBC5DF814FB00008D090000D0
:1004B00070B5044685690068C10601D5302600E0A4
:1004C0002026C00707D070BDD4E9012130469047EF
:1004D000206A401C20626D1EF6D570BD70B50446C2
:1004E00085690078C00707D170BDD4E901212020BB
:1004F0009047206A401C20626D1EF6D570BD00003A
:100500002DE9F0410646002410687529314616A5EC
:1005100010D0AFF30080002802DA404213A507E0B4
:1005200031688A0701D512A502E0490704D511A553
:10053000012401E0AFF3008000210A2206F1240724
:1005400009E0B0FBF2FCB0FBF2F302FB1C00303020
:1005500078541846491C0028F3D123462A463046D1
:10056000BDE8F04100F0DCB9000000002D00000003
:100570002B000000200000002DE9F05F89460446B2
:100580004FF0000ADFF824B1FB44C0F820A0204659
:10059000E168884700287DD0252806D0D4E90121CC
:1005A0009047206A401C2062F1E700255F46204604
:1005B000E16888472028064607DB312E05D2B819A6
:1005C00010F8200C08B10543F1E7A80701D525F084
:1005D0000405C4F81CA00027C4F818A02A2E09D0CE
:1005E000304605F047FE38B304EB8708303EC8F8C4
:1005F000186019E059F8041B204604EB870291614A
:10060000E1688847012F064618D1E069002820DA02
:1006100025F020051DE0D8F8180000EB800006EB5F
:1006200040003038C8F818002046E1688847064680
:1006300005F020FE0028EED1012F0AD02E2E08D181
:100640002046E16888477F1C0646022F45F02005BA
:10065000C4DBA069002803DA404245F00105A0612F
:10066000E80701D025F01005A6B1A6F14100192830
:1006700002D8203645F400654A46314620462560BA
:100680004D46FFF7E3FD60B1012807D0ED1D25F0D1
:10069000070000E007E000F1080978E705F1040928
:1006A00075E730467AE7206ABDE8F09F50D1070031
:1006B00040EA0103024630B59B0710D14FF00134E8
:1006C00000E008C208C91D1B9D4315EAC41FF8D0ED
:1006D00013F0FF0102F8011B0DD01B0AF8E711F817
:1006E000013B002B02F8013B05D011F8013B002B28
:1006F00002F8013BF3D130BD10B5431C02E010F805
:10070000011B71B18107FAD14FF0013202C88C1A76
:100710008C4314EAC211F9D0C01A0A0603D0C01ED5
:1007200010BDC01A10BD0A0401D0801E10BD090200
:10073000FCD0401E10BD032A40F2308010F0030CA4
:1007400000F0158011F8013BBCF1020F624498BF24
:1007500011F801CB00F8013B38BF11F8013BA2F1C1
:10076000040298BF00F801CB38BF00F8013B11F03C
:10077000030300F02580083AC0F0088051F8043BDC
:10078000083A51F804CBA0E80810F5E7121D5CBF49
:1007900051F8043B40F8043BAFF30080D20724BF7C
:1007A00011F8013B11F801CB48BF11F8012B24BF10
:1007B00000F8013B00F801CB48BF00F8012B70475F
:1007C00010B5203AC0F00B80B1E81850203AA0E8EC
:1007D0001850B1E81850A0E81850BFF4F5AF5FEA20
:1007E000027C24BFB1E81850A0E8185044BF18C9D3
:1007F00018C0BDE810405FEA827C24BF51F8043B7A
:1008000040F8043B08BF7047D20728BF31F8023BCD
:1008100048BF11F8012B28BF20F8023B48BF00F861
:10082000012B704702F0FF0343EA032242EA02422F
:1008300000F0FDBA4FF0000200B51346944696460C
:10084000203922BFA0E80C50A0E80C50B1F12001E3
:10085000BFF4F7AF090728BFA0E80C5048BF0CC091
:100860005DF804EB890028BF40F8042B08BF7047EF
:1008700048BF20F8022B11F0804F18BF00F8012B61
:10088000704700004FF0013C50F8042B51F8043B36
:100890009A4221D1A2EB0C03934313EACC1317D154
:1008A00050F8042B51F8043B9A4215D1A2EB0C03EB
:1008B000934313EACC130BD150F8042B51F8043BAB
:1008C0009A4209D1A2EB0C03934313EACC13DBD079
:1008D0004FF00000704700BFD01A01BAB1FA81F1A1
:1008E00001F0180122FA01F0CB40C1F12001DBB286
:1008F000C0B2C01A2CFA01F3D11A914311EAC31104
:10090000E6D1704770477047704710B500F0B4FAF1
:10091000006810BD10B5044600F0AEFA046010BDCA
:100920002DE9F0470D4699469246044600F1240809
:100930000168880604D5E06921F01001216000E01B
:100940000120A84201DD471B00E00027A1697A19B8
:1009500002EB0900081AA0612078C00602D42046E4
:10096000FFF7A6FD002608E0D4E901211AF80600E9
:100970009047206A401C761C20624E45F4DB2078AC
:10098000C0060AD52046FFF793FD06E0D4E9012111
:1009900030209047206A401C2062381EA7F10107D2
:1009A000F4DC07E0D4E9012118F805009047206A3B
:1009B000401C2062281EA5F10105F3DC2046FFF74C
:1009C0008DFD2078000602D50220BDE8F0870120C9
:1009D000FBE770472DE9FF4F0C461E464FF0FF37EF
:1009E0008BB0D2E90001DDF860800A908A46C1F33D
:1009F0000A5505B93D46002108464FF00000BAF1FE
:100A0000000F00F4400005DA00EB80004FF44001D5
:100A100001EA50004FEA9059B9F1010F00DDB946E3
:100A20000A9850EA4A000ED044F61050A5F2FF355D
:100A300045432F14B8F1000F1ED07542291E1EDD4C
:100A4000C9F100021CE0B8F1010F4FF0000001D025
:100A5000302103E0F24305E02154401CB042FBDBAF
:100A600030460022002121540B99C1F80880C1E9C9
:100A700000200FB0BDE8F08FBD1B6D1CDEE74A46BD
:100A800000DA694206A800F081FA06AB93E8070095
:100A900003AB83E8070050460A9900F022FB8DE87B
:100AA0000700A0F500501F3800900398002D0ADDC4
:100AB00042F21F014A460844002303A903906846F6
:100AC00000F08BFD09E0A0F500504A461F380023D6
:100AD00003A90390684600F095FD8DE80700000427
:100AE000000C03D04FF0FF30410800E01046B8F191
:100AF000000F03D00022009215461EE0751E05D49B
:100B000000F0BEF9303262556D1EF9D5B3460122B0
:100B1000084302D000227F1C04E02078302801D155
:100B200000227F1E002A099784D01DE0112D07DACC
:100B300000F0A6F9303262556D1C50EA0102F5D181
:100B4000084302D00098C8B10EE00021681E05E0FD
:100B5000235C625C63542254401E491C8142F7DBD3
:100B6000AB46A81B401E0990002004F80B000B9810
:100B7000099AC0F80880C0E9002B7AE711264FF0E7
:100B8000000857E72DE9F04F88460446D21D22F0B1
:100B9000070191B0D1E90001CDE90A0104F079FB28
:100BA00002460B98C00F01D02D2007E02068810776
:100BB00001D52B2002E0202101EAC000032A099080
:100BC00001D0072A05DB03464146204600F09EF986
:100BD0000BE12078800601D5E06900E00620B8F13D
:100BE000650F814606D0B8F1660F18D0B8F1670FCF
:100BF00070D131E00020B9F1110F009001DB112319
:100C000001E009F101030AAA01A90CA8FFF7E2FE1D
:100C1000DDE90C70002609F10105834647E001205B
:100C20004B4600904FF000470AAA01A90CA8FFF715
:100C3000D1FEDDE90DB00C995D46002610B909F131
:100C400001000D18B9EB050003D4C0F1FF3609F11E
:100C50000105A5EB09002BE0B9F1010F01DA4FF016
:100C600001090020B9F1110F0090484601DD112360
:100C700000E003460AAA01A90CA8FFF7ABFEDDE9D4
:100C80000C704D4600268346207800070AD4AB45F9
:100C900000DA5D4601A8012D04DD411911F8011C9F
:100CA000302907D04F4502DA17F1040F04DA01208A
:100CB00082460FE06D1EEEE7002F02DCED1B3E4486
:100CC00003E0781CA84200DD7D1CB81B00F1010A7E
:100CD0004FF000472078000703D4AA4501DB4FF00E
:100CE000FF3A0021B7F1004F0DF143088DF8431092
:100CF00024D002202B23002F01DA7F422D230A214A
:100D0000021EA0F1010000DC5FB197FBF1FC97FB34
:100D1000F1F201FB1C7C17460CF1300C08F801CDF8
:100D2000EEE7A8F1010003702188090501D54521EE
:100D300000E06521A0F1010800F8011C09980FA945
:100D4000A1EB0807FF1D00B10120411901EBEA707A
:100D5000A1693844081A401EA0612078C00602D458
:100D60002046FFF7A5FB099828B1D4E90121904757
:100D7000206A401C20622078C00622D52046FFF75A
:100D800097FB1EE0002E04DBB34502DD01A8805D69
:100D900000E03020D4E901219047206A401C206205
:100DA000761CAAF101005FEA000A0AD100F060F89F
:100DB000C0680168405CD4E901219047206A401C6A
:100DC0002062281EA5F10105DCDC07E0D4E9012141
:100DD00018F8010B9047206A401C2062381EA7F1CA
:100DE0000107F3DC2046FFF779FB032011B041E651
:100DF00001694A1C02610878704700B58FB0CDE9DF
:100E000001310021059105497944CDE903101146CE
:100E10006846FFF7B1FB0FB000BD0000E5FFFFFF24
:100E20000A6802F8010B0A6070474FF000020429BB
:100E3000C0F0128010F0030C3FF4FEACCCF1040CB7
:100E4000BCF1020F18BF00F8012BA8BF20F8022B3D
:100E5000A1EB0C01FFF7F0BC5FEAC17C24BF00F8F6
:100E6000012B00F8012B48BF00F8012B7047000050
:100E7000004870470806012000487047E805012037
:100E800030B5B0F10A024FEA900E71F100034EEA5C
:100E9000817EB0EB0E0061EB91014FEA101E4EEA2D
:100EA000017E10EB0E0041EB11114FEA102E4EEABD
:100EB000016E10EB0E0041EB11214FEA104E4EEA8D
:100EC000014E10EB0E0041EB1141401841F10001C1
:100ED0004FEAD00040EA41704FEAD10110EB8005A3
:100EE0004FEA810444EA907444EB01046D1944EB29
:100EF0000404521BA3414FF0000348BF0A3200D53F
:100F000030BD401C41F1000130BD00002DE9F04131
:100F10001F46044603260168072A01F4006004DB2B
:100F200008B116A505E016A503E008B115A500E077
:100F300015A521F010002060A069C01EA0610FB1AE
:100F4000401EA0612046FFF7B3FA4FB1D4E901215A
:100F500038469047206A401C2062C01C206206E090
:100F6000206AFAE7D4E9012115F8010B9047761EB3
:100F7000F8D22046FFF7B2FABDE8F0814E414E00AC
:100F80006E616E00494E4600696E66002DE9F047BD
:100F9000814616468AB0354878440DC88DE80D0064
:100FA00032487844801C03AC0DC884E80D0041F63B
:100FB0009B300844372190FBF1F290FBF1F5A5F14D
:100FC000800501FB12041B3C02D56442012000E0B5
:100FD0000020DFF898A080460027FA44AAF1BE0A54
:100FE0000EE0E0070AD03246684607EB47010123CE
:100FF0000AEB810100F006FB8DE8070064107F1CFE
:10100000002CEED1194F7F44AE3F19E0E80715D010
:1010100007EB04100DF1180A90E80E008AE80E00A4
:10102000C068F04201D1981908903246012306A900
:1010300003A800F0E7FA03AB83E807006D10641C17
:10104000002DE3D14FF0010332466946B8F1000F9D
:1010500003A802D000F0C1FA01E000F0D3FAC9E918
:101060000001C9F808200AB0BDE8F08730C90700C0
:1010700000487047E80501207546FFF7F9FFAE46C6
:1010800005006946534620F00700854618B020B594
:10109000FFF770F9BDE820404FF000064FF0000761
:1010A0004FF000084FF0000B21F00701AC46ACE810
:1010B000C009ACE8C009ACE8C009ACE8C0098D467D
:1010C000704710B50446AFF300802046BDE81040DD
:1010D000FFF7DBB801491820ABBEFEE7260002008F
:1010E00070475FEA400C08BF91F0000F4FEA8C2375
:1010F0004FEAC12243EA51514FEA1C5018BF00F594
:10110000F0404FEA300018BF41F000415FEA6C5CEC
:1011100000F02980BCF1FF3F08BF40F080407047DD
:10112000130C06BF12044FF0100C4FF0000C130EFE
:1011300004BF12020CF1080C130F04BF12010CF1D2
:10114000040C930F04BF92000CF1020CD30F04BFE8
:1011500052000CF1010C11464FF00002A0F11F00EB
:10116000A0EB0C00704711F0004F08BF704731F042
:1011700000413FF4D5AF0B0C06BF09044FF0100C33
:101180004FF0000C0B0E04BF09020CF1080C0B0F02
:1011900004BF09010CF1040C8B0F04BF89000CF192
:1011A000020CCB0F04BF49000CF1010CCCF1200361
:1011B000A0EB0C0022FA03F302FA0CF241EA03015D
:1011C00000F10100704720F07F4C80EA030023F01B
:1011D0007F47ACEB070303F57C5300F0004003F1BD
:1011E000FF032DE980494FEA154B09B44FEA144338
:1011F00025EA0B4E24EA03480FF2042606EB1327D8
:1012000049083E785FEA320203FB0667C7F500072C
:1012100007FB06F64FEA54374FEAD64606F10206B8
:1012200007FB066CCCF1005C4FEA1C472CEA074C2C
:1012300007FB06F40CFB06F504EB15464FEA961681
:1012400034BF00204FF000404FEAD13706FB07FCC7
:101250004FEA1C4C0CFB0BF7D21B03FB0CF761EBAA
:1012600007010CFB0EF7B0EB074072EB17420CFBCB
:1012700008F734BFA2EB0742B2EB074261EB17411C
:101280004FEA0C444FEA910706FB07FC4FEA1C4C5F
:101290000CFB0BF7B0EBC74072EB573203FB0CF7BC
:1012A00034BFA2EBC742B2EBC74261EB57310CFB34
:1012B0000EF7B0EBC70072EB57720CFB08F734BFA8
:1012C000A2EBC702B2EBC70261EB5771039F4FEA73
:1012D000816141EA921104EBCC044FEAD1374FEA25
:1012E000826206FB07FC42EA90124FEA80604FEAF6
:1012F0001C4C0CFB0BF7D21B03FB0CF761EB07013B
:101300000CFB0EF7B0EB074072EB17420CFB08F733
:1013100034BFA2EB0742B2EB074261EB17414FEA41
:101320008C554FEA910704EB9C2406FB07FC4FEA1F
:101330001C4C0CFB0BF7B0EBC74072EB573203FBB6
:101340000CF734BFA2EBC742B2EBC74261EB573197
:101350000CFB0EF7B0EBC70072EB57720CFB08F7F3
:1013600034BFA2EBC702B2EBC70261EB577115EBBA
:101370004C254FEA816141EA92114FEA82624FEABD
:10138000D13742EA901206FB07FC44F100044FEA11
:1013900080604FEA1C4C0CFB0BF7D21B03FB0CF7D5
:1013A00061EB07010CFB0EF7B0EB074072EB174245
:1013B0000CFB08F734BFA2EB0742B2EB074261EB2C
:1013C000174115EB1C154FEA813141EA92414FEA72
:1013D000823242EA90424FEA80304FEA0C7644F182
:1013E000000448EA03434EEA0B484FF0000EB2EB0C
:1013F000080C71EB030724BF624639464EEB0E0E14
:101400004FF0000B0018524149414BEB0B0BB2EB74
:10141000080C71EB03077BF1000B24BF62463946D1
:101420004EEB0E0E4FF0000B0018524149414BEBB2
:101430000B0BB2EB080C71EB03077BF1000B24BF25
:10144000624639464EEB0E0E51EA020718BF46F0CF
:10145000010616EB0E7655F1000254F1000103D59A
:10146000BDE88901BDE80088BDE88901BDE8004804
:10147000B619524141EB0101A3F10103704780808D
:101480007F7E7D7C7B7A79787776767574737271DE
:1014900071706F6E6E6D6C6C6B6A6A696868676696
:1014A00066656464636362616160605F5F5E5E5D28
:1014B0005D5C5C5B5B5A5A5959585857575656559C
:1014C00055555454535352525251515050504F4FFE
:1014D0004F4E4E4D4D4D4C4C4C4B4B4B4A4A4A494E
:1014E0004949484848474747474646464545454491
:1014F0004444444343434342424242414141002B1E
:101500009C4630D477002BD01CB54FEA370703B484
:101510004FF010004FF01001BAF1000F06D0BCF1EF
:10152000000FDCBF40F0080040F008014FF0000061
:101530000FBCBDE810400BF1010BBBF1010F08BF60
:101540005FEA170722BF12F1010211F101014FF00A
:10155000004143F1000300F0004043EA00007047FF
:10156000F9D35708D0E746EA064613F1400F4FEA91
:1015700016461FDD13F1200FDFBF16430A46002178
:1015800020335B42BED0C3F1200746EA064602FA8A
:1015900007F74FEA164646EA0706C3F1200722FA84
:1015A00003F201FA07F721FA03F14FF0000342EAD0
:1015B0000702A7E746EA020646EA06464FEA16464B
:1015C00046EA0106BCBF46EA0646360C4FF0000369
:1015D0004FF000024FF0000194E72DE9804C9A464D
:1015E000934670B491E8380007C831EA400C48BF10
:1015F00034EA430C03D5FFF7E6FDFFF780FFF0BCAC
:10160000BDE8008C2DE9804C9A46934670B491E871
:10161000380007C810F0804F08BF13F0804F03D187
:1016200000F005F8FFF76BFFF0BCBDE8008C20F080
:101630007F4780EA030023F07F4C07EB0C03A3F500
:101640007C5300F00040A3F1FE0392F0000F00F085
:10165000B38095F0000F00F077802DE901494FEA43
:1016600011404FEA144621EA004800FB06FC24EA38
:10167000064708FB06F607FB08F800FB07F718EB20
:1016800006484CEB164C4FEA124B18EB07484FEA52
:1016900015464CEB174022EA0B4E0BFB06FC25EAE5
:1016A00006470EFB06F607FB0EFE0BFB07F71EEBCD
:1016B000064E4CEB164C4FF000061EEB074E4CEB63
:1016C000174B18EB0B0840F1000018EB0E0B58EB12
:1016D000000840F100008F1A4FF000013CBFC943E1
:1016E000661B14BFB5EB040C00213CBFC943F61BBD
:1016F0004FEA17444EEA8E0E27EA04454FEA1C478C
:1017000004FB07622CEA074C05FB07F70CFB05F608
:1017100004FB0CFC16EB074642EB174216EB0C469B
:1017200042EB1C421BEB060658EB0202414146EA23
:101730009E0601D5BDE80189B619524141EB010170
:10174000A3F10103BDE801894FEA14454FEA1147AF
:1017500024EA054621EA074C05FB07F406FB07F7D8
:101760000CFB06F105FB0CFC11EB074144EB1744A5
:101770004FEA124711EB0C4144EB1C4422EA074CA0
:1017800005FB07F206FB07F70CFB06F605FB0CFC56
:1017900016EB074642EB174216EB0C4642EB1C4594
:1017A0006A1854F1000148BF7047B619524141EB25
:1017B0000101A3F10103704795F0000F37D04FEA04
:1017C00011424FEA144721EA024624EA074C02FB81
:1017D00007F106FB07F70CFB06F402FB0CFC14EB0D
:1017E000074441EB17414FEA154714EB0C4441EB1A
:1017F0001C4125EA074C02FB07F506FB07F70CFB2B
:1018000006F602FB0CFC16EB074645EB174516EBFC
:101810000C4645EB1C42121951F1000148BF7047BC
:10182000B619524141EB0101A3F1010370474FEAA0
:1018300014454FEA114724EA054621EA074C05FB07
:1018400007F106FB07F70CFB06F24FF0000605FB5D
:101850000CFC12EB074241EB174112EB0C4251EB2F
:101860001C4148BF7047921841EB0101A3F10103ED
:1018700070470000464910B54A6822F440324A6079
:101880004A6843681A434A6001684A6822F48072D1
:101890004A6001684A68036942EA03224A600168B3
:1018A0004A6822F040724A6001684A6883681A43B5
:1018B0004A6001688A6822F400628A6001688A6866
:1018C000C3681A438A60816A6FF07062D14201680E
:1018D0008A6822F070628A6001688A680CD0836A24
:1018E0001A438A6001688A6822F040528A6001685F
:1018F0008A68C36A1A4301E022F040528A60016894
:101900008A6822F002028A6001688A68037E42EADD
:1019100043028A6090F82010002901684A680FD0BD
:1019200042F400624A6001684A6822F460424A60F8
:1019300001684A68174C436A04EB43331A4301E0D9
:1019400022F400624A600168CA6A22F47002CA6224
:101950000168CA6A838B104C04EB03531A43CA62B2
:1019600001688A6822F400728A6001688A6890F8C7
:10197000303042EA43228A6001688A6822F4806239
:101980008A6001688A68406942EA8020886010BDE8
:101990000023014000E0FFFF0000F0FF10B502F05F
:1019A000E5FE9FED091AF0EE400A80EE810ADFEDB8
:1019B000070A03F057FFF7EE000A30EEC00ADFED2A
:1019C000040A20EE200A10BD80E6C54701DE423E33
:1019D000002A2D472DE9F0411F462DED048B1446BA
:1019E0000D469DED0A9A064611FB05F012FB040018
:1019F00000EE100AB8EEC00A04F02EFBF0EE400A2A
:101A000000EE106AB8EEC00A03F07EFCF0EE408AE9
:101A100016FB06F014FB040000EE100AB8EEC00A34
:101A200004F01AFBF0EE400A00EE105AB8EEC00ABD
:101A300003F06AFCB0EE408A03F06CFEB0EE480A98
:101A400004F042FAB0EE680A04F03EFAB0EE680A1A
:101A500003F060FEB0EE480A04F036FAB0EE680A11
:101A600003F058FEB0EE680A04F02EFA00EE107A89
:101A7000F8EEC00AB8EEC90A03F046FCDFED0A0A28
:101A800020EE200A10EE100A24F0C0FD9FED071B87
:101A900053EC112B24F050FA24F074F9BDEC048BB4
:101AA00000EE100ABDE8F081000034434AD8124D20
:101AB000FB21094010B5114800F0B4FB05210F4887
:101AC00000F05AFB0D4800F0F9FA84B20B4800F020
:101AD0000FFC600024F09FFB9FED091B53EC112BC2
:101AE00024F0ACFB9FED081B53EC112B24F0A6FB5C
:101AF00024F048F900EE100A10BD00006803002031
:101B00006666666666660A40000000000000303FB8
:101B1000FEE700000421014800F00ABD0000024079
:101B2000704700002DED028B354D364CDFED368AC7
:101B30008AB0287803285FD104AA03A902A802F07A
:101B40009BFA07AA06A905A802F0B5FABDF91C1070
:101B5000BDF91800CDE90001BDF91430BDF9102020
:101B6000BDF90C10BDF90800FFF734FF78EEC00A8C
:101B7000B2EE040A30EE808AB5EEC08AF1EE10FAB9
:101B800002D238EE288A05E018EE100AA04201DBE6
:101B900038EE688A18EE100A24F038FD41EC100B7C
:101BA0001AA153EC102B08A8FEF76EFC194808A9DF
:101BB000006817F063FA9FED180ADFED180A38EE97
:101BC000000A30EEC00AB5EEC00AF1EE10FA02D2F9
:101BD00030EE280A05E010EE100AA04201DB30EEDC
:101BE000680ABDEEC00A10EE100A02B20C48016885
:101BF0000C48006817F090FE64201EF085FE98E700
:101C0000980200200000B4430000B443252E306643
:101C100020000000240300200000B44200003443F0
:101C20001003002008030020002000F001B800008D
:101C300002464821014801F0FDBD0000540000208B
:101C40000B4602464821014801F01FBE5400002007
:101C500010B5052404E0642000F068FB641EE4B2C3
:101C6000FFF7E2FF362802D0002CF4D106E02CB1B9
:101C700000210120FFF7E4FF002010BD012010BD6E
:101C800010B5052404E0642000F050FB641EE4B2AB
:101C9000FFF7CAFF362802D0002CF4D106E02CB1A1
:101CA00008210120FFF7CCFF002010BD012010BD4E
:101CB00038B519480524016841F002010160006847
:101CC00000F002000090154801F0ACFC04E0642034
:101CD00000F02CFB641EE4B2FFF7A6FF362802D00A
:101CE000002CF4D116E0ACB100210120FFF7A8FFD1
:101CF00000210820FFF7A4FF7F210A20FFF7A0FFA3
:101D000047210D20FFF79CFF00210E20FFF798FFD1
:101D1000002038BD012038BD30380240540000207A
:101D200010B503F009F810EE100A24F06FFC41EC36
:101D3000100B0FA153EC102B0F48FEF7A5FB0F4C17
:101D40000D49E06C17F09AF9FFF728FE10EE100A23
:101D500024F05CFC41EC100B09A153EC102B06485D
:101D6000FEF792FB606DBDE81040034917F086B99D
:101D7000252E316600000000D405012098020020C5
:101D8000252E31666D0000001CB5184C4FF47A7595
:101D90002078022825D102F0CFFF10EE100A24F09F
:101DA00035FC41EC100B12A153EC102B6846FEF7EA
:101DB0006BFB11486946006817F060F9FFF7EEFD0C
:101DC00010EE100A24F022FC41EC100B0BA153EC96
:101DD000102B6846FEF758FB0A486946006817F062
:101DE0004DF928461EF090FDD2E700009802002031
:101DF000252E316600000000E4020020252E316609
:101E00006D000000EC02002072B6FEE71CB51B4E10
:101E1000DFF86C80DFF86CA01B4F1C4C01254FF0E5
:101E20000009694601A800F033F80098B04201D9D2
:101E3000E17849B1B84203D8E07808B184F803905A
:101E40000A201EF061FDECE7E57098F8000000281C
:101E5000F6D19AF800105046491CC9B28AF8001011
:101E6000052900D9057025709AF80000042802D0D1
:101E7000FFF7EEFEE4E7FFF703FFE1E79A9919BFEA
:101E80009902002098020020CDCCCCBDF4000020A7
:101E90003EB50C46054601AA694602A802F064F95F
:101EA000BDF8000010FB00F1BDF8040010FB0010AD
:101EB00000EE100AB8EEC00A04F0CEF8BDF9080032
:101EC000F0EE400A00EE100AB8EEC01A81EE200AC9
:101ED00003F070FBB1EE400A84ED000ABDF900008A
:101EE00000EE100ABDF90400F8EEC00A00EE100A78
:101EF000B8EEC01A80EE810A03F05CFB85ED000AA3
:101F00003EBD70B5022002F0F9FC0546012002F04A
:101F1000F5FC0446002002F0F1FC44EA002145EA09
:101F20000120010201D540F07F4070BD70B5052051
:101F300002F0E4FC0546042002F0E0FC0446032025
:101F400002F0DCFC44EA002145EA0120010201D54F
:101F500040F07F4070BD000078B50024009490F8F8
:101F60003C20012A19D0012280F83C200A6807236E
:101F70000568092A13D9EE680A3A02EB4202934037
:101F80009E43EE600B788A680A3B03EB43039A405A
:101F90000368DD682A43DA6010E0022078BD2E690C
:101FA00002EB420293409E432E610B788A6803EB5A
:101FB00043039A4003681D692A431A614A681F2334
:101FC000072A13D205686E6B521E02EB8202934001
:101FD0009E436E630A8893B20A79521E02EB820214
:101FE00093400268556B2B43536327E005680D2A25
:101FF00012D22E6BD21F02EB820293409E432E63BD
:102000000B790A88DB1F92B203EB83039A400368C3
:102010001D6B2A431A6311E0EE6A0D3A02EB82024D
:1020200093409E43EE620B790A880D3B92B203EB1C
:1020300083039A400368DD6A2A43DA621B4B056812
:10204000194A9D420AD10D68122D07D1556825F411
:1020500000055560556845F48005556005689D424A
:102060001DD1134D0B68AB4201D0112B17D1536812
:1020700023F480035360536843F4000353600968FA
:10208000A9420CD10B490C4A0968B1FBF2F101EBF2
:102090008101490000E0491E00910029FBD180F830
:1020A0003C40002078BD000000230140002001409A
:1020B000120000101000002040420F000068C06CA9
:1020C000704770B504004FF0000503D0206C002667
:1020D00010B107E0012070BD204600F01DF86664D5
:1020E00084F83C60206CC00610D4206C20F488502A
:1020F00040F0020020642046FFF7BCFB6664206CC1
:1021000020F0020040F00100206400E0012584F886
:102110003C60284670BD000010B586B0044614210E
:102120006846FEF787FB1149206888421CD1104899
:102130000021026842F480720260006800F480703E
:1021400005900B481438026842F0010202600068F2
:1021500000F001000590022000900320CDE901016C
:102160006946044800F0F4F806B010BD00200140B4
:1021700044380240000002402DE9F0410446006866
:102180000D4681684FF0000749050BD58068C005F2
:1021900008D5206C40F02000206484F83C700120B9
:1021A000BDE8F08100F0CEF9064613E0681C11D0BE
:1021B00025B100F0C7F9801BA8420BD92068006840
:1021C000800707D4206C40F00400206484F83C7041
:1021D0000320E5E7206800688007E7D521686FF0F5
:1021E00012000860206C40F4007020642068816850
:1021F00011F0405F13D1217E89B9C16A11F4700FCB
:1022000002D0806840050AD4206C20F480702064DD
:10221000206CC00403D4206C40F001002064002036
:10222000BEE7000018B50021009190F83C20012A7B
:1022300007D0012280F83C2002689368DB0702D0B7
:1022400011E0022018BD936843F001039360244A13
:10225000244B1268B2FBF3F202EB420200E0521E82
:102260000092002AFBD102689368DB072ED0036C32
:1022700040F20164A34343F48073036453685B0535
:1022800005D5036C23F4005343F480530364036CBB
:10229000DB0404D5436C23F00603436400E041648F
:1022A00080F83C1010496FF0220313604968006801
:1022B000C90602D00D49884210D1816811F0405FF3
:1022C0000CD1816841F08041816007E0016C41F0F0
:1022D00010010164416C41F001014164002018BD0E
:1022E0001000002040420F00002301400020014068
:1022F00090F83C1001290CD0012180F83C100168B5
:102300008A6822F001028A6001688968C90702D0E0
:1023100007E002207047016C21F4885141F001016F
:102320000164002180F83C100846704770B50446EF
:1023300000F008F90546601C02D004480078044407
:1023400000F000F9401BA042FAD370BD0400002049
:102350002DE9F84FDFF8B8A1002201240AF1040B9F
:1023600003254FF00F090BF1040E00BF0B6804FAB0
:1023700002F63340B34273D10F7907F00307012F00
:1023800001D0022F16D187684FEA420805FA08FCEF
:1023900027EA0C07D1F80CC00CFA08FC4CEA070C31
:1023A000C0F808C04768B7430E79C6F300169640D8
:1023B0003E4346600E79F643B6070DD0C768560017
:1023C00005FA06FC27EA0C07D1F808C00CFA06FC4F
:1023D0004CEA070CC0F80CC00E7906F00306022E7A
:1023E00010D1D60800EB8608D8F8206057074FEACE
:1023F000D76C09FA0CF7BE430F6907FA0CF737439D
:10240000C8F8207006684FEA420C05FA0CF7BE4384
:102410000F7907F0030707FA0CF7374307604E6898
:1024200016F4403F6DD03B4E376847F48047376025
:10243000366822F0030706F480460096364E07EB16
:10244000060CDCF8086897073F0F09FA07F826EA38
:102450000806DFF8C880404503D14FF000081EE0B1
:102460004FE0DFF8BC80404502D14FF0010816E094
:10247000DFF8B080404502D14FF002080FE0DFF8EE
:10248000A880404502D14FF0030808E0DFF89C80A7
:10249000404502D14FF0040801E04FF0070808FA68
:1024A00007F848EA0608CCF80888DAF800605746CA
:1024B000D1F804C09E435FEACC3C00D51E433E6089
:1024C000DBF800605F46D1F804C09E435FEA8C3CB5
:1024D00000D51E433E60DEF800607746D1F804C0A8
:1024E0009E435FEACC2C00D51E433E60084F0C375C
:1024F0003E68D1F804C09E435FEA8C2C00D51E4391
:102500003E60521C102AFFF431AFBDE8F88F000086
:10251000003C0140443802400030014000000240CD
:102520000004024000080240000C0240001002407B
:102530000069084000D0012070470AB181617047EE
:102540000904FBE701488068704700000400002090
:1025500002488168027811448160704704000020BD
:102560000B4810B5016841F400710160016841F445
:1025700080610160016841F480710160032000F016
:102580008DF80F2000F006F800F03EF8002010BD96
:10259000003C024010B5014688B00022192000F02E
:1025A0005DF8192000F04CF813480024016841F050
:1025B00001010160006805A900F00100069068466D
:1025C00000F0CEF900F0ECF90C490D4AB0FBF1F146
:1025D0000C48491E026040F2E732C0E90324C0E91A
:1025E000011400F0D7FD10B1012008B010BD05485E
:1025F00000F01AFEF9E700004438024040420F00A4
:1026000000000140D00300200C4882B0016841F472
:1026100080410160006800F4804000900748001F7E
:10262000016841F0805101600068002200F0805094
:1026300000900F21901E02B000F010B84438024004
:10264000002809DB00F01F020121914040098000B1
:1026500000F1E020C0F8001170470000F0B40E4B0C
:102660001B680C46C3F30223C3F10705042D00D9F0
:102670000425191D072901D2002300E0DB1E0126D5
:1026800006FA05F1491E214099409E40761E1640EB
:102690003143F0BC02F028BE0CED00E0064900F02A
:1026A000070208684FF6FF03184040EA0220034A79
:1026B00010430860704700000CED00E00000FA05D0
:1026C000034908B50120086202480068009008BD6F
:1026D00000000E42007000402DE9F84304460068F7
:1026E0004FF00109C1074FF0000601D1400729D57D
:1026F000DFF82081C8F86860FFF724FF0746464DE1
:1027000005E000BFFFF71EFFC01B022859D828684C
:102710000001F7D4A068217B800140EA0170616864
:1027200008433D4984310860C8F86890FFF70AFF04
:10273000074604E0FFF706FFC01B022841D82868BF
:102740000001F7D52078800752D533484030016822
:1027500041F0805101600068304D00F080500090E1
:10276000286840F480702860FFF7ECFE074604E01C
:10277000FFF7E8FEC01B022823D82868C005F7D55C
:10278000254D7035286810F4407020D0218A01F45E
:10279000407181421BD02868214920F44070C1F863
:1027A00000900E6028602868C00710D0FFF7CAFEAE
:1027B000064641F2883707E0FFF7C4FE801BB842A7
:1027C00002D90320BDE8F88328688007F4D5216981
:1027D0001148C1F301220830032A12D0016821F404
:1027E000F81101602868218AC1F30B0108432860B1
:1027F0002078000703D50B49207DC1F8E0010020B7
:10280000E0E70268084B22F4F81219400A4302601C
:10281000E8E7000000004742003802400070004036
:10282000400E474200104742FFFCFF0F2DE9F047E2
:102830000E46050065D0DFF81481D8F80000F7B225
:1028400000F00700B04207D288F80070D8F8000006
:1028500000F00700B04254D128683D4C810712D5E2
:10286000400703D5206840F4E05020602878000736
:1028700003D5206840F4604020602068A96820F0FB
:10288000F000084320602878C0072DD030496868E0
:102890000839012812D0022813D0032811D0096862
:1028A000890700292DDA216821F003010143216005
:1028B000FFF748FE814641F2883A0EE00968890335
:1028C000EFE709688901ECE7FFF73CFEA0EB09019F
:1028D000514502D90320BDE8F0872068696800F0FF
:1028E0000C00B0EB810FEFD1D8F80010404601F09A
:1028F0000701B14207D90770006800F00700B04235
:1029000001D00120E7E72878400705D52068E9686D
:1029100020F4E050084320602878000706D520689E
:10292000296920F4604040EAC100206000F048F8C6
:102930002168084AC1F30311515CC8400649086088
:1029400006480068FFF726FE0020C4E7003C02406E
:102950000838024006670208100000200800002026
:102960000F2202600C4A136803F0030343601368EC
:1029700003F0F0038360136803F4E053C36012684C
:102980004FF4E05303EAD20202610448006800F009
:10299000070008607047000008380240003C024011
:1029A0000448054900680968044AC1F34231515C92
:1029B000C84070471000002008380240166702081F
:1029C000154810B5006810F00C02144813D01449D3
:1029D000042A0FD0082A0ED10F4C241F2268236826
:1029E00002F03F025B0207D52068C0F38810A0FB0D
:1029F000010106E0084610BD2168C1F38811A1FB62
:102A000000010023FDF7C8FC2168C1F30141491C06
:102A10004900B0FBF1F010BD083802400024F4007A
:102A200040787D012DE9F84F04006ED02078DFF862
:102A30004C93C007A9F104054AD009F104000168CC
:102A4000C1F38101012908D00068C0F38100022888
:102A50000AD1D9F80000400206D52868800337D58E
:102A600060680028E1D033E06068B0F5803F10D0A6
:102A7000B0F5A02F286810D020F480302860286896
:102A800020F4802028606068A8B1FFF75BFD06464F
:102A90000DE0286840F48030F4E740F4802028609E
:102AA000F7E700BFFFF74EFD801B642873D8286846
:102AB0008003F7D50CE0FFF745FD064605E000BFB3
:102AC000FFF740FD801B6428F0D828688003F7D406
:102AD0002078DFF8AC8280074FF0000A3ED5A74887
:102AE000001D016811F00C0F08D00068C0F38100D0
:102AF00002280BD1D9F80000400207D428688007CB
:102B000016D5E068012800D112E033E1E068B8B1E1
:102B10000120C8F80000FFF715FD064605E000BFDC
:102B2000FFF710FD801B0228C0D828688007F7D562
:102B30002868216920F0F80040EAC10028600DE013
:102B4000C8F800A0FFF7FEFC064604E0FFF7FAFC19
:102B5000801B02281FD828688007F7D42078000738
:102B600022D5864F87486169703771B101210160B4
:102B7000FFF7E8FC064604E0FFF7E4FC801B0228B0
:102B800009D838688007F7D50EE0C0F800A0FFF735
:102B9000D9FC064605E082E0FFF7D4FC801B022842
:102BA0007DD838688007F7D42078400768D5DFF8EB
:102BB000CCB100270BF13C0BDBF80000C0000BD4BC
:102BC000DBF8001041F08051CBF80010DBF800007A
:102BD000012700F0805000906B4E3068C00510D483
:102BE000306840F480703060FFF7ACFC009005E086
:102BF000FFF7A8FC0099401A022850D83068C00599
:102C0000F6D55E4EA0686C3601280FD005283068D6
:102C100010D020F001003060306820F004003060F7
:102C2000A068B8B1FFF78EFC00900FE0306840F06C
:102C30000100F4E740F004003060F7E7FFF782FCA2
:102C40000099411A41F28830814266D83068800785
:102C5000F4D50EE0FFF776FC009007E0FFF772FC7A
:102C60000099411A41F28830814256D83068800775
:102C7000F4D42FB1DBF8001021F08051CBF8001014
:102C8000A069C8B33D49091D0968C1F38101022942
:102C90004AD00228504607D0C8F8600000E03CE067
:102CA000FFF750FC04463BE04746C8F86000FFF7DA
:102CB00049FC064605E000BFFFF744FC801B0228E4
:102CC0002BD828688001F7D4D4E907010843A16A0A
:102CD0002E4A490802EB0141626A41EA8211084327
:102CE00094F82C1040EA0161C9F800100120386600
:102CF000FFF728FC044606E03EE000BFFFF722FC99
:102D0000001B022809D828688001F7D534E000BFED
:102D1000FFF718FC001B022802D90320BDE8F88F3A
:102D200028688001F4D427E00128F7D0D9F8000002
:102D3000E26900F4800191421CD1226A00F03F0157
:102D4000914217D147F6C071626A0140B1EB821F10
:102D500010D1A26A4FF0FF3300F4403103EB52026E
:102D6000B1EB024F06D194F82C1000F07060B0EB7C
:102D7000016F01D00120D1E70020CFE704380240E5
:102D800000004742800E4742007000400000FFFFF5
:102D90000068503050F8210070470068503040F80B
:102DA0002120704710B500680B4641680D4801406E
:102DB000080CD870C1F304245C7001F03F049C70CF
:102DC000C1F34231197052B901F022FDD870587820
:102DD00001F01EFD5870987801F01AFD98700020DF
:102DE00010BD00003FFFFF0010B50B460168896A67
:102DF000596001680969C1F30E01996000680168B2
:102E00000E480140C1F305401870C1F306245C7000
:102E100001F07F049C70402404EA1141D97052B93A
:102E200001F0F6FC1870587801F0F2FC58709878B0
:102E300001F0EEFC9870002010BD00007F7F7F0045
:102E400070B5040002D0607F10B106E0012070BDB3
:102E500000202077204600F049F8022060772168A2
:102E6000CA204862216853204862204601F0E4FCF1
:102E7000FF25042618BB206881681B4A1140816029
:102E80002168886862681043D4E904231A43104318
:102E900088602168E068086120680169228941EA48
:102EA000024101612068C16821F08001C160206891
:102EB0008068800607D4204600F010F918B1206819
:102EC00045626677C2E72068016C21F480210164C5
:102ED0002068016CA26911430164206845620120E9
:102EE0006077002070BD0000BFFF8FFF10B586B077
:102EF000044618216846FDF79DFC09492068884270
:102F00000CD102200090C00104906846FFF7E4FB5A
:102F100008B1FEF779FF03490120086006B010BD33
:102F2000002800403C0E47422DE9F0470446007F50
:102F30000B4601281FD04FF0010984F81C90022095
:102F40006077DAB19878D97840EA014558781978ED
:102F5000000240EA413005432168CA2048622168E6
:102F600053204862204601F067FC0026FF274FF0FF
:102F7000040860BB1AE00220BDE8F0875878C1065B
:102F800003D500F0EF000A305870D87801F049FC02
:102F90000204587801F045FC42EA0022987801F0DA
:102FA00040FC0243187842EA4035D5E70F48054017
:102FB000206845602068C16821F08001C1602068F8
:102FC000806880060AD4204600F088F830B1206876
:102FD000476284F81D8026770120CDE7206847628C
:102FE00084F81D9026770020C6E700003FFFFF0011
:102FF0002DE9F0470446007F0D46012827D04FF009
:10300000010A84F81CA002206077206800268068EE
:103010004FEA4060F2B1002800DBEE70A878297812
:1030200040EA01476878E978000240EA0140074336
:103030002168CA204862216853204862204601F076
:10304000FBFB4FF0FF084FF00409A0BB16E0022085
:10305000BDE8F087002800DBEE70287801F0E1FB86
:103060000204687801F0DDFB42EA0022A87801F052
:10307000D8FB0243E87842EA0047D9E71648074000
:10308000206807602068816821F480218160D5E98B
:103090000301084321688A68104388602068C1687A
:1030A00021F08001C1602068806880060BD4204632
:1030B00000F014F838B12168C1F8248084F81D901C
:1030C00026770120C4E72168C1F8248084F81DA078
:1030D00026770020BCE700007F7F7F0070B50446A4
:1030E0000068C16821F0A001C160FFF72BFA054616
:1030F0004FF47A7607E000BFFFF724FA401BB04296
:1031000001D9032070BD2068C0688006F4D5002076
:1031100070BD70477047000070B590F83C20012AE0
:103120002CD0012480F83C40022280F83D20036826
:103130005A689D6822F070060A6832435A60104B44
:1031400002689A420ED0B2F1804F0BD00D4B9A42DA
:1031500008D00D4B9A4205D00C4B9A4202D00C4B32
:103160009A4204D1496825F080031943916080F8A0
:103170003D40002180F83C10084670BD022070BD23
:10318000000001400004004000080040000C004026
:103190000040014010B5040003D094F83D0010B188
:1031A00007E0012010BD002084F83C00204600F01C
:1031B0001FF8022084F83D00211D206801F03AFD2F
:1031C000012084F8460084F83E0084F83F0084F82B
:1031D000400084F8410084F8420084F8430084F8F9
:1031E000440084F8450084F83D00002010BD000034
:1031F00008B50068B0F1804F12D10A48016841F06B
:10320000010101600068002200F0010000901146F9
:103210001C20FFF723FABDE808401C20FFF710BA76
:1032200008BD00004038024090F83D10012901D04F
:1032300001207047022180F83D100168CA6842F001
:103240000102CA6000680E4988420ED0B0F1804F7A
:103250000BD00C49884208D00B49884205D00B4955
:10326000884202D00A49884204D1816801F00701EE
:10327000062903D0016841F0010101600020704778
:10328000000001400004004000080040000C004025
:103290000040014070B5044690F83C00002501282C
:1032A00017D0012684F83C60022084F83D00206895
:1032B000826822F0770222F47F42826008685028F8
:1032C00038D00DDC20284FD005DC90B3102811D168
:1032D0004AE0022070BD302846D040280AD13BE0A9
:1032E00060282FD070280DD0B0F5805F03D0B0F5E6
:1032F000005F12D0012584F83D60002084F83C0076
:10330000284670BDCB68D1E90121206801F0DEFCC0
:103310002068816841F0770109E0CB68D1E901219B
:10332000206801F0D3FC2068816841F4804181600D
:10333000E1E719E0CA684968206801F0D9FC50212A
:10334000206806E0CA684968206801F0E2FC602154
:10335000206801F0C5FCCEE7CA684968206801F022
:10336000C7FC40212068F4E7226801461046F0E7D8
:10337000704770B50446006801694FF00005C94305
:10338000890715D4C168C943890711D4E91E0161B1
:1033900001202077206880698007204602D0FFF74F
:1033A000E7FF04E000F098F8204600F096F8257753
:1033B00020680169C943490717D4C168C94349074F
:1033C00013D46FF004010161022020772068806926
:1033D00010F4407F204602D0FFF7CAFF04E000F05F
:1033E0007BF8204600F079F8257720680169C94309
:1033F000090716D4C168C943090712D46FF0080140
:103400000161042020772068C0698007204602D02F
:10341000FFF7AEFF04E000F05FF8204600F05DF833
:10342000257720680169C943C90617D4C168C94313
:10343000C90613D46FF010010161082020772068BD
:10344000C06910F4407F204602D0FFF791FF04E0EE
:1034500000F042F8204600F040F825772068016926
:10346000C943C90708D1C168C943C90704D1891E26
:103470000161204600F032F820680169C94309065D
:1034800009D4C168C943090605D46FF08001016100
:103490002046FFF73EFE20680169C943490609D46A
:1034A000C168C943490605D46FF040010161204657
:1034B00000F02AF820680169C94389060BD4C16865
:1034C000C943890607D46FF0200101612046BDE899
:1034D0007040FFF71FBE70BD7047704710B50446BF
:1034E00000680749884201D1FFF732F82068B0F13F
:1034F000804F03D103480168491C016010BD0000E2
:1035000000000140000000207047000010B50C468C
:10351000072220490CF054F91E4907220E3120469B
:103520000CF04EF91B481C4CC188828891422ED366
:10353000428891422BD30288914228D90289914234
:1035400025D34289914222D3808981421FD91148D3
:1035500004F10C020E301188C088431AB3F5D57FF0
:1035600015DB51801080401A4EF6602191FBF0F07F
:10357000084909221C310CF023F906481C30408907
:1035800028B1044809211C3000F03EF82070207852
:1035900010BD000060040020600000201CB5134E28
:1035A000DFF84C80134DDFF850904FF6FF773078FE
:1035B000042817D12920FEF73BFB07EA0024282026
:1035C000FEF736FB2043D8F80010FFF79FFFC2B28A
:1035D0002A710AA16846FCF757FF6946D9F800002E
:1035E00015F04CFD0A201DF08FF9E0E7980200204D
:1035F00000000020F40000204403002048523A203C
:1036000025640000FEE7000010B5002205E000BFC1
:1036100030F81240521C2344D2B28A42F8D3B3FB92
:10362000F1F010BD10B586B0044614216846FDF7D0
:1036300001F920890090012001900290022003905E
:1036400069462068FEF784FE6089009069466068DC
:10365000FEF77EFE06B010BD70B5064608240025B4
:1036600001F019F913E06806050E0021304601F05B
:1036700000F9142005F0D0FD0121304601F0F9F8E1
:10368000142005F0C9FD304601F0FCF80543641E26
:10369000E4B2E8D20021304601F0EBF8142005F046
:1036A000BBFD304601F015F9284670BD10B5044643
:1036B000002101F005F9142005F0AEFD142005F0FD
:1036C000ABFD0121204601F0D4F8142005F0A4FD43
:1036D0000021204601F0CDF8BDE81040142005F08F
:1036E0009BBD000070B50C460646082519E000BFDA
:1036F00001F0BFF8012005F08FFD04F08001304695
:1037000001F0DEF8142005F087FD6006040E142099
:1037100005F082FD0121304601F0ABF8142005F0E0
:103720007BFD6D1EEDB24FF000013046E0D2BDE8EA
:10373000704001F09EB810B50446012101F0C0F8B8
:10374000142005F069FD0121204601F092F81420B3
:1037500005F062FD0021204601F08BF8BDE8104025
:10376000142005F059BD10B50446012101F0A8F858
:10377000142005F051FD0121204601F07AF81420B3
:1037800005F04AFD0021204601F09AF8142005F0CA
:1037900043FD0021204601F06CF8BDE810401420E4
:1037A00005F03ABD10B50446002101F062F814207E
:1037B00005F032FD0021204601F082F8142005F0CA
:1037C0002BFD0121204601F054F8142005F024FDC2
:1037D0000121204601F074F8BDE81040142005F0E6
:1037E0001BBD70B50546052401F055F8012128469A
:1037F00001F03FF805E0641EA4B2142005F00CFDB2
:1038000084B1284601F03EF80028F4D1284601F0A2
:1038100060F80021284601F02CF8142005F0FCFC8B
:10382000002070BD284601F054F82846FFF7BAFF83
:10383000012070BD70B516460C460546FFF793FF94
:1038400021462846FFF74EFF2846FFF7CAFF3146BC
:103850002846FFF747FF2846FFF7C3FF2846FFF734
:1038600082FF641CE1B22846FFF73CFF2846FFF7C1
:10387000B8FF2846FFF7F0FE04462846FFF75BFF37
:103880002846FFF78FFF204670BD2DE9F0411D4609
:1038900016460C460746FFF766FF21463846FFF7F7
:1038A00021FF3846FFF79DFF28B13846FFF77AFF22
:1038B0000120BDE8F08131463846FFF713FF384656
:1038C000FFF78FFF29463846FFF70CFF3846FFF712
:1038D00088FF3846FFF766FF142005F09DFC0020A6
:1038E000E7E7000030B587B014216846FCF7A2FF77
:1038F00015480024016841F001010160016801F0F0
:1039000001010591016841F0020101600068012593
:1039100000F00200059018208DE8310069460B4840
:10392000FEF716FD20208DE83100094D6946284636
:10393000FEF70EFD1020CDE90004694628460294EA
:10394000FEF706FD07B030BD3038024000040240EB
:1039500000000240DFF83082DFF828928B4C8C4D5B
:103960004FF0000A0126A8F13C07002000F014F9EE
:10397000012806D0022878D003280ED004280BD1C5
:10398000E6E020780128FAD12878401CC0B22870DF
:10399000052800D92E707E70EFE0287830B1062817
:1039A00019D2DFE800F0D30D192531552078401CDD
:1039B000C0B22070052800D926703E70207869E0DA
:1039C00099F80010491EC9B289F80010172902D9C8
:1039D000172189F80010B9E099F80110491EC9B201
:1039E00089F801103B2902D93B2189F80110ADE08B
:1039F00098F80110491E11F0FF0188F8011002D15A
:103A00000C2188F80110A1E098F80210491ECAB2F2
:103A100088F8022098F8011002290FD0012910D04F
:103A200003290ED005290CD007290AD0082908D06F
:103A30000A2906D00C2904D032B187E07ABB1C21B8
:103A400003E062BB1F2100E01E2188F802107DE028
:103A500098F80000401E10F0FF0088F8000075D1B3
:103A6000072088F8000071E0FFE7287830B10628C9
:103A700067D2DFE800F06618232E395C2078401EFC
:103A800010F0FF00207001D0052801D9052020701A
:103A90003E70C0B2042803D0FEF7DAF86DE055E0BE
:103AA000FEF7EEF869E099F80000401CC0B289F812
:103AB0000000172845D989F800A042E099F80100D4
:103AC000401CC0B289F801003B283AD989F801A00E
:103AD00037E098F80110491CC9B288F801100C2988
:103AE0002FD988F801602CE098F80200401CC1B280
:103AF00088F8021098F80100022810D0012813D08D
:103B0000032811D005280FD007280DD008280BD086
:103B10000A2809D00C2807D01E2902D811E01C2938
:103B20000FD988F802A00FE01F29FAD809E098F809
:103B30000010491CC9B288F80010072901D988F87B
:103B4000006098F8020008B988F80260BE7014E0BE
:103B5000207801280FD1287868B185F800A07E7000
:103B6000002208490B48FFF743FA0022064909489A
:103B7000FFF7DAF901E000F0BBFD01201CF0C4FE04
:103B8000F3E600008C4D0020300100209802002058
:103B900099020020B00300202DE9F0412F4D304F55
:103BA000304E4FF0010810B185F8008001E0287810
:103BB00080B320213846FEF7BBFC70B108213046A7
:103BC000FEF7B6FC48B110213046FEF7B1FC20B13B
:103BD00010213846FEF7ACFCE0B103201CF094FE47
:103BE00020213846FEF7A4FC80B108213046FEF7BC
:103BF0009FFC68B110213046FEF79AFC58B11021A5
:103C00003846FEF795FC40B1042407E0012405E0A6
:103C1000022403E005E0032400E0DCB1002028706A
:103C200018E003201CF070FE20213846FEF780FCCF
:103C300080B108213046FEF77BFC58B11021304698
:103C4000FEF776FC30B110213846FEF771FC08B95A
:103C500085F800802046BDE8F0810000700000205B
:103C600000000240000402402DE9F04107461C46D6
:103C700015460E462A2000F067F93437B8B200F036
:103C800059F93435A8B200F055F92B2000F05CF951
:103C90002836B0B200F04EF92834A0B200F04AF94C
:103CA000BDE8F0412C2000F04FB900002DE9FF5F86
:103CB000894600999346501A401C86B2A3EB09002E
:103CC000401C87B20024A3F10108DDF838A017E0FA
:103CD00009EB040081B21FFA88F35A460098FFF7F7
:103CE000C3FF002508E000BF04FB06513AF81100AD
:103CF00000F020F96D1CADB2B542F5D3641CA4B23E
:103D0000BC42E5D3BDE8FF9FF0B587B014216846FB
:103D1000FCF790FD1848016841F00101016001685D
:103D200001F001010591016841F0020101600068A4
:103D3000124F00F00200059040F2074401250326CF
:103D4000694603963846CDE90045FEF701FB01229E
:103D500021463846FEF7F1FBC020CDE90005084CAE
:103D6000694603962046FEF7F3FA0122C021204659
:103D7000FEF7E3FB07B0F0BD30380240000402401C
:103D80000000024010B5FFF7BFFF694C002202217E
:103D90002046FEF7D2FB642005F044FA01220221FE
:103DA0002046FEF7CAFB642005F03CFA012291028E
:103DB0002046FEF7C2FB642005F034FA112000F023
:103DC000C3F8782005F02EFA362000F0BDF8002068
:103DD00000F0CEF83A2000F0B7F8052000F0C8F85F
:103DE000B22000F0B1F80C2000F0C2F80C2000F076
:103DF000BFF8002000F0BCF8332000F0B9F8332001
:103E000000F0B6F8B72000F09FF8352000F0B0F8C9
:103E1000BB2000F099F8192000F0AAF8C02000F0AB
:103E200093F82C2000F0A4F8C22000F08DF80120B7
:103E300000F09EF8C32000F087F8122000F098F8F8
:103E4000C42000F081F8202000F092F8C62000F095
:103E50007BF80F2000F08CF8D02000F075F8A4203B
:103E600000F086F8A12000F083F8E02000F06CF864
:103E7000D02000F07DF8042000F07AF80D2000F04A
:103E800077F8112000F074F8132000F071F82B205F
:103E900000F06EF83F2000F06BF8542000F068F856
:103EA0004C2000F065F8182000F062F80D2000F0BA
:103EB0005FF80B2000F05CF81F2000F059F8232079
:103EC00000F056F8E12000F03FF8D02000F050F864
:103ED000042000F04DF80C2000F04AF8112000F00A
:103EE00047F8132000F044F82C2000F041F83F2060
:103EF00000F03EF8442000F03BF8512000F038F884
:103F00002F2000F035F81F2000F032F81F2000F0BD
:103F10002FF8202000F02CF8232000F029F8212091
:103F200000F012F8BDE81040292000F00DB80000A4
:103F30000004024010B50446000A00F019F8E0B28F
:103F4000BDE8104000F014B870B5084C05460022DA
:103F500001212046FEF7F1FA284600F009F8204634
:103F6000BDE8704001221146FEF7E7BA00040240A6
:103F70002DE9F041144F0546002204213846FEF792
:103F8000DCFA124E0024002280213046FEF7D5FADA
:103F9000280601D5012200E0002240213046FEF72C
:103FA000CCFA012280213046FEF7C7FA6806641C6D
:103FB000050EE4B2082CE6D33846BDE8F0410122F4
:103FC0000421FEF7BABA00000004024000000240DB
:103FD00038B527480024016841F0010101600068FC
:103FE00000F0010000902348FFF71CFB1021232064
:103FF00000F0A8F80120FEF799F92721202000F011
:10400000A1F80120FEF792F9202000F08FF8272870
:1040100007D00A20FEF78AF9641CE4B2032CE5D32A
:1040200024E00120FEF782F900249021002000F016
:1040300089F80120FEF77AF98021012000F082F84A
:104040000120FEF773F90021022000F07BF8012027
:10405000FEF76CF9022000F069F8002807D00A206A
:10406000FEF764F9641CE4B2032CDED3012038BDF2
:1040700030380240480000207CB514460D46064604
:104080006A460621282000F035F89DF801009DF8C9
:10409000003043EA002333809DF8030001029DF8BD
:1040A0000200084328809DF8050001029DF80400E5
:1040B000084320807CBD7CB514460D4606466A4602
:1040C0000621032000F016F89DF800009DF801304D
:1040D00043EA002333809DF8020001029DF80300AB
:1040E000084320809DF8040001029DF80500084364
:1040F00028807CBD2DE9F04190460E4605461928E2
:1041000001D9322700E03C27002409E02819C2B277
:1041100039460548FFF78EFB08F80400641CE4B23A
:10412000B442F3D3BDE8F08148000020192801D93A
:10413000322100E03C2102460148FFF77BBB000032
:10414000480000200B46192801D9322100E03C210B
:1041500002460148FFF799BB480000201BF0BCFB5A
:1041600001201CF0D1FBF9E77CB514460D4606464C
:104170006B4606223B21682000F086F800280BD110
:10418000BDF8001049BA3180BDF8021049BA298043
:10419000BDF8041049BA21807CBD0000224808B552
:1041A000016841F002010160006800F00200009027
:1041B0001E48FFF737FA80216B2000F0E9F86420F1
:1041C00005F030F800216B2000F0E2F8032000F049
:1041D000AAF8022000F0A2F8322000F0C1F8002175
:1041E000382000F0D5F800216A2000F0D1F8002135
:1041F000232000F0CDF88021372000F0C9F8752089
:1042000000F016F8682801D0012008BD01216B20BC
:1042100000F0BEF800216C2000F0BAF8322000F067
:104220009FF8002008BD0000303802403C0000200C
:1042300010B504461348FFF796FAD0211148FFF74E
:1042400051FA1048FFF7CDFA21460E48FFF74AFA17
:104250000C48FFF7C6FA0B48FFF785FAD121094849
:10426000FFF740FA0748FFF7BCFA0648FFF7F4F9F2
:1042700004460448FFF75FFA0248FFF793FA204626
:1042800010BD00003C0000202DE9F04106461D460F
:1042900014460F462048FFF766FA7006010E1E48C6
:1042A000FFF720FA1C48FFF79CFA28B11A48FFF7DD
:1042B00079FA0120BDE8F08139461748FFF712FA74
:1042C0001548FFF78EFA1448FFF74DFA012000EB6E
:1042D0004600C1B21048FFF705FA0F48FFF781FA10
:1042E0000BE00D48012C0FD0FFF7B6F928700A48F3
:1042F000FFF7DCF9641EE4B26D1C002CF1D1064816
:10430000FFF750FA0020D5E7FFF7A6F9287002481A
:10431000FFF711FAEEE700003C000020C006010E96
:104320001C2000F035B8C006010E1B2000F030B88C
:10433000BC2801D3012110E0622801D302210CE046
:104340002A2801D3032108E0142801D3042104E022
:104350000A2801D3052100E006211A2000F018B830
:1043600010B504464FF47A70844201D9044602E045
:10437000042C00D20424B0FBF4F0401EC1B219207A
:1043800000F006F86008BDE81040FFF7D1BF00005C
:1043900070B504460D461248FFF7E5F9D0211048E4
:1043A000FFF7A0F90E48FFF71CFA70B921460C4838
:1043B000FFF798F90A48FFF714FA29460848FFF76B
:1043C00091F90748FFF70DFA20B10548FFF7EAF920
:1043D000012070BD0248FFF7E5F9002070BD000024
:1043E0003C0000207FB500241548009401940294FD
:1043F0001249039401604FF48031C0E90114046153
:10440000047680F820400F49C0E90A140125C561EF
:10441000C46080F830404561FDF753FE08B1FDF7F8
:10442000F3FC0095CDE9015469460548FDF794FD7C
:10443000002801D0FDF7E8FC7FBD0000002001400E
:10444000680300200100000F10B51EF061FE044A51
:10445000002104481CF094FA0349086310BD0000D1
:1044600088680208514B0008F400002030B587B07E
:1044700014216846FCF7DEF915480024016841F074
:1044800004010160016801F004010591016841F037
:1044900080010160016801F080010591016841F02F
:1044A0000101016000680B4D00F001000590002241
:1044B00008212846FEF741F8082000900120CDE9A8
:1044C0000104694628460394FDF742FF07B030BD5A
:1044D000303802400000024030B587B014216846F1
:1044E000FCF7A8F92448002422490594C0E90014E7
:1044F0007F218160FF21C0E9031444618461FEF7DC
:104500009FFC08B1FDF780FC00211B48FEF740FC32
:1045100045F25005A8422AD008208DF80000592005
:104520008DF801008DF8024003940122694612487B
:104530000494FEF75DFD08B1FDF766FC03208DF8DD
:10454000140007208DF8150013208DF81600222086
:104550008DF81700012205A90748FEF7E5FC08B110
:10456000FDF752FC2A4600210348FEF716FC07B06F
:1045700030BD000000280040B003002010B586B018
:1045800000241648009401940294039404944FF07C
:104590008041059401604F21C0E9011440F2E731E8
:1045A000C0E903148461FEF7F5FD08B1FDF72CFCAA
:1045B0004FF48050009069460848FEF76BFE08B142
:1045C000FDF722FC049404A904480594FEF7A4FD19
:1045D000002801D0FDF718FC06B010BD180400201B
:1045E000FEE7FEE770B5FDF765FA10EE104AFDF73D
:1045F00091FA58B1204622F009F89FED2A1B53EC9E
:10460000112B21F019FF21F0BDFB044627488442FD
:1046100001DD642544E0264826492044884201D82B
:104620005A253DE0244821182448814201D85025CC
:1046300036E02349621823498A4201D246252FE0F9
:10464000214A2244824201D23C2529E01F481B4ACC
:104650002044521E904201D8322521E01C481D4AB8
:104660002044904201D828251AE01B481B4A2044C8
:10467000904201D81E2513E01948164A2044521CC6
:10468000904201D814250BE016482044884201D2FC
:104690000A2505E0144815492044884200D2052522
:1046A000284670BDFCA9F1D24D62C03F66668640C7
:1046B0007A147EBFE07A0400AE4781BF3333030033
:1046C000B81E85BF0AD70300EB5188BF1E858BBF7C
:1046D000A3708DBF84EB010051B88EBFAD470100C0
:1046E000D7A390BFE17A94BF3333A3BF52B80E0073
:1046F000002208210148FDF720BF00000000024011
:10470000012208210148FDF718BF00000000024007
:1047100030B587B014216846FCF78CF811480024A6
:10472000016841F00101016000680F4D00F00100D7
:104730000590224608212846FDF7FFFE082000903C
:104740000120CDE90104694628460394FDF700FEE7
:104750000420CDE90004694628460294FDF7F8FDDF
:1047600007B030BD303802400000024010B52DEDDA
:10477000028BFDF7DBFB00EE100ADFED238AB8EEBB
:10478000C00A80EE288AFDF7BCFB00EE100A1F4825
:10479000B8EEC00AB0F90810C0EE280A00EE101AF0
:1047A000B0F90C1001EE101AB8EEC00AB0F90410FE
:1047B000B8EEC11A00EE810A90ED051A28EE202A03
:1047C000B8EEC11A00EE801A90ED040AB8EEC00AE5
:1047D00000EE810A01EE101AB0F90610B0F90A00D5
:1047E000B8EEC11A01EE900A08EE010A01EE101AA5
:1047F000F8EEE11ABDEC028BB8EEC11A00EEA11A78
:1048000002EE010A10BD00000000F04A1400002072
:10481000010901EB810100F00F0000EB4100C0B283
:104820007047002102E00A38C0B2491C0A28FAD2B7
:10483000090740EA1160704770B504460068C16816
:10484000490614D44FF0FF31C160FDF77BFE0546E9
:104850004FF47A7607E000BFFDF774FE401BB042CC
:1048600001D9032070BD2068C0684006F4D500203F
:1048700070BD4289406811B18169114300E01104A3
:104880008161704710B501890068FDF751FE01286C
:1048900000D0002010BD10B586B004461421684633
:1048A000FBF7C8FF208900900020019001200290B2
:1048B0000220039069462068FDF74AFD06B010BD4E
:1048C0000289006811B18169114300E0110481611E
:1048D000704710B586B0044614216846FBF7AAFF5E
:1048E0002089009011200190002002900220039066
:1048F00069462068FDF72CFD06B010BD0246EC218C
:104900000148FEF797BF00002C0000200B4602462E
:10491000EC210148FEF7B9BF2C00002038B5224831
:10492000016841F002010160006800F0020000909F
:104930001E48FEF777FE03210620FFF7E7FF8321DD
:104940000720FFF7E3FF07210820FFF7DFFF002123
:104950000920FFF7DBFF0BF019FE144C183C2080F8
:104960000BF04CFE60800BF03DFEA0800BF072FE61
:10497000E0800BF07BFE20810BF084FE60810BF069
:104980008DFEA0810BF014FE20610BF049FE6061EA
:104990000620FFF7B3FF032804D10920FFF7AEFF7D
:1049A000002800D0012038BD303802402C00002003
:1049B00008B54A4D4A4E4B4FDFF82C81DFF82C9159
:1049C000DFF82CA10024287848B34A482C700078DE
:1049D000062824D2DFE800F02303090F151B00236B
:1049E0001A4607214448009416E000231A4607217E
:1049F0004248009410E000231A46072140480094E2
:104A00000AE000231A4607213E48009404E00023F0
:104A10003D481A4607210094006819F0FBF96878B0
:104A2000A8B33A486C700078062852D2DFE800F04C
:104A3000031C26303A4500221146D9F8000018F030
:104A4000ECFB00221146306818F0E7FB002211460B
:104A5000386818F0E2FB00221146D8F8000018F080
:104A6000DCFB0022114625E000221146D9F80000A7
:104A700018F0D3FB0022FF21306828E00022114605
:104A8000306818F0CAFB0022FF2138681FE020E0E0
:104A900000221146386818F0C0FB0022FF21D8F828
:104AA000000014E000221146D8F8000018F0B5FB11
:104AB0000022FF21DAF8000009E000221146DAF8AE
:104AC000000018F0AAFB0022FF21D9F8000018F01E
:104AD000A4FB64201BF018FF75E70000F400002021
:104AE000B4020020AC020020A4020020A802002092
:104AF000BC020020980200209C020020D802002066
:104B000000030020380300205803002099020020F1
:104B10000D4D0E4E002443F69827287869780843F7
:104B2000A97808430DD1307804280AD0641CA4B2B7
:104B3000BC4202D30024FFF7DBFD01201BF0E4FEA2
:104B4000EBE70024F9E70000F400002098020020C1
:104B500001201BF0D9FEFBE710B54FF0E020006903
:104B600020F03CFF012803D0BDE8104020F06ABCD3
:104B700010BD000030B593B030216846FBF75AFEF7
:104B800014210CA8FBF756FE1E480025016841F0D1
:104B900080510160006800F080501190FDF790FD99
:104BA0001948016841F4404101600068022400F4A2
:104BB00040401190062000900120029003901020A8
:104BC000049006940820CDE907505020CDE909044F
:104BD00004200B906846FDF725FF08B172B6FEE78A
:104BE0000CA90F2081E831004FF48050CDE90F056A
:104BF00002210CA8FDF71AFE002801D072B6FEE7CC
:104C000013B030BD403802400070004002480168D7
:104C100041F470010160704788ED00E00148FEF743
:104C2000A8BB0000D00300200148FEF7A2BB000093
:104C300018040020F0B502681D4B1E4C9F031E4D4A
:104C40001E4E984207D0B84205D0A04203D0A842D9
:104C500001D0B04204D122F0700C4A6842EA0C0242
:104C6000984210D0B8420ED0A0420CD0A8420AD030
:104C7000B04208D0124CA04205D0124CA04202D043
:104C8000114CA04203D122F44074CA6822434C69FB
:104C900022F08002224302608A68C2620A6882624D
:104CA000984201D10969016301214161F0BD000011
:104CB000000001400004004000080040000C0040DB
:104CC00000400140004401400048014010B58468A4
:104CD00042EA032224F47F440A432243826010BD47
:104CE000826822F070020A4342F007018160704737
:104CF00010B5036A046A24F001040462846924F094
:104D0000F00444EA021423F00A020A4384610262B6
:104D100010BD10B5036A23F0100303628369046AAF
:104D200023F4704343EA023224F0A00343EA011162
:104D30008261016210BD000010B52DED028BFDF700
:104D4000F5F800EE100A9FED151A154CB8EEC00AE2
:104D5000B4F90200C0EE010A00EE100AB8EEC00A73
:104D600020EE200A10EE100A21F050FC41EC180B46
:104D7000B4F9000021F038FA9FED0A1B53EC112B17
:104D800021F05CFA53EC182B21F02EF820F0FAFFFA
:104D9000BDEC028B00EE100A10BD00000000F04ACE
:104DA00014000020000000000000E03F10B58AB0B1
:104DB000002203A92F48FEF717F8002208A92D4862
:104DC000FDF7F0FF2C4C2078012846D160780028B0
:104DD00043D19DF80C2029A16846FBF755FB694695
:104DE000E06914F04BF99DF80D2024A16846FBF70B
:104DF0004BFB6946606914F041F99DF821100C20C5
:104E0000B1FBF0F2B1FBF0F300FB131002441BA165
:104E10006846FBF739FB6946E06814F02FF99DF806
:104E2000222016A16846FBF72FFB6946606A14F042
:104E300025F99DF8200008280BD2DFE800F00A04CD
:104E40000610121416180FA100E010A16846FBF717
:104E50001BFB6946206914F011F90AB010BD0DA1C1
:104E6000F4E70FA1F2E711A1F0E712A1EEE714A118
:104E7000ECE70000B00300209802002025303264E7
:104E8000000000004D6F6E64617900005475657319
:104E9000646179005765646E657364617900000030
:104EA0005468757273646179000000004672696429
:104EB00061790000536174757264617900000000CB
:104EC00053756E64617900000EB5754DDFF8CCA1A5
:104ED0002C1D744F744EDFF8D4B10AF11408A4F1FC
:104EE00038096E49002214317148FDF77DFF6C4985
:104EF0000022091D6E48FDF755FF387801286AD158
:104F0000307868B199F80220002A64D0002289F82C
:104F1000022006285FD2DFE800F0A869747E88923C
:104F20009AF8001098F80020914208D061A16846D4
:104F3000FBF7AAFA6946DBF8000014F09FF89AF82C
:104F4000011098F80120914208D05AA16846FBF759
:104F50009BFA5A486946006814F090F868786278BD
:104F6000904208D053A16846FBF78EFA5448694630
:104F7000006814F083F8A878A278904208D04DA178
:104F80006846FBF781FA4F486946006814F076F8E6
:104F900029782078814212D008280BD2DFE800F06F
:104FA0000A04061C1E20222447A100E048A16846EE
:104FB000FBF76AFA48486946006814F05FF8374919
:104FC000002228313A48FDF70FFF35490022083109
:104FD0003748FDF7E7FE48E040A1E8E742A1E6E7F1
:104FE00044A1E4E745A1E2E747A1E0E72B4831A16E
:104FF000283002786846FBF747FA6946DBF800007C
:1050000031E026482BA1283042786846FBF73CFA6D
:1050100069462A4826E0224826A108304278684698
:10502000FBF732FA694626481CE01D4821A10830EA
:1050300082786846FBF728FA6946224812E0184849
:105040000830007808280BD2DFE800F00A04061DBB
:105050001F2123251CA100E01DA16846FBF714FABF
:105060001D486946006814F009F800220B491048F1
:10507000FDF7BAFE00220A490D48FDF793FE6420B1
:105080001BF042FC2DE715A1E7E717A1E5E719A101
:10509000E3E71AA1E1E71CA1DFE70000644D00206F
:1050A000280100209802002099020020B40200206C
:1050B000B00300202530326400000000AC02002064
:1050C000A4020020BC0200204D6F6E6461790000D4
:1050D0005475657364617900A80200205765646E99
:1050E0006573646179000000546875727364617956
:1050F00000000000467269646179000053617475B4
:10510000726461790000000053756E64617900007B
:105110001CB54D4D4D4E4E4FDFF83881DFF83891BC
:10512000DFF838A1DFF838B1FFF75CFA0446024631
:105130004CA16846FBF7A8F94C480078012809D132
:105140004B486946006813F099FF4A4821460068B9
:105150000DF0AEFC5A2C0DD347A1286813F08EFF3A
:1051600045A1306813F08AFF43A1386813F086FF29
:1051700041A13CE0462C0DD340A1286813F07EFFEE
:105180003EA1306813F07AFF3CA1386813F076FF37
:105190003AA12CE0322C0DD339A1286813F06EFF10
:1051A00037A1306813F06AFF35A1386813F066FF45
:1051B00033A11CE01E2C0DD332A1286813F05EFF32
:1051C00030A1306813F05AFF2EA1386813F056FF53
:1051D0002CA10CE02CA1286813F050FF2AA1306804
:1051E00013F04CFF28A1386813F048FF26A1D8F827
:1051F000000013F043FFFCF78DFC0028D9F80000F5
:105200000ED017F08CF8DAF8000017F088F8DBF809
:10521000000017F084F81D48006817F080F80DE0D2
:1052200017F047F8DAF8000017F043F8DBF8000051
:1052300017F03FF81548006817F03BF84FF47A7004
:105240001BF062FB70E70000CC020020F40200209B
:10525000280300204C030020D0020020F802002088
:105260002C03002025642525000000009802002062
:10527000C4020020C0020020EF898000EF89810075
:10528000EF898200EF898300EF89840050030020BA
:10529000FEE703B401984100009850EAC12018BF0E
:1052A00004204A0D18BF40F0010040F2FF72B2EB3B
:1052B000515F08BF40F00200012808BF052002B07E
:1052C00070474100080218BF04200A0E18BF40F0C2
:1052D00001004FF07F4232EA010108BF40F00200B6
:1052E000012808BF052070470907090E002804DBC4
:1052F00000F1E02080F80014704700F00F0000F18A
:10530000E02080F8141D704770B54FF068422DED15
:10531000048BF0EE408A18EE900AB0EE608A18EE28
:10532000101A02EB4003B3F1654F3CBF02EB4102A0
:10533000B2F1654F7DD200BFC0F3C753C1F3C7526E
:105340009A1A1B2A09DD10F0004F14BF9FED830A43
:105350009FED830ABDEC048B70BD12F11A0F36DA93
:1053600011F0004F09D010F0004F0CBF9FED7D0AE7
:105370009FED7D0ABDEC048B70BD88EE889A19EE16
:10538000100AFFF79EFF042808BF00F0A3FE18EEE6
:10539000900AFFF796FF054618EE100AFFF791FFF7
:1053A000044619EE100AFFF78CFF042D18BF052DD7
:1053B00008D1042C18BF052C04D1002804BF0220FA
:1053C000FBF7A8FAB0EE490ABDEC048B70BD4200B1
:1053D000B2EB410F3AD910F0004F19BFDFED630A6D
:1053E0009FED630ADFED630A9FED630AB0EE481A92
:1053F0000A46B1EE688A80F00041F0EE418A10461C
:105400000A1A5200B2F1807F34D2484010F0004FA7
:10541000DFED5A1A9FED5A2A1DBFBEEE001A70EE3C
:10542000E10A30EE420AB6EE001A08BF70EEA10A99
:1054300000E040E008BF30EE020AB0EE682A01EE5C
:10544000482A08EE818AC2EE081A15E011F0004FD2
:1054500004BF9FED4C0AF0EE400AD1D010F0004F8F
:1054600019BFDFED490A9FED490ADFED490A9FEDBB
:10547000490AC5E7C8EE881A21EEA11A9FED462A0F
:10548000DFED462A41EE022A9FED452A01EE222A4F
:10549000DFED442A41EE022A9FED432ABDEC048B46
:1054A00001EE222A21EE811A01EE020A30EE210AD3
:1054B00030EE200A70BD4FF07F42B2EB400F28BFA4
:1054C000B2EB410F09D2F0EE480AB0EE680ABDEC2B
:1054D000048BBDE8704000F0EABD40EA01035B00C8
:1054E00008BF41F0FF410BD0B2EB400F08BFB2EB59
:1054F000410F08D120F0804008EE900A21F0804151
:1055000008EE101A18E7B2EB400F12BF5FEA410332
:1055100040F0FF4001F000413FF40EAFB2EB410F0D
:1055200012BF5FEA400200F0004041F0FF413FF44B
:1055300003AF4A0092EA40033FF5FEAE002AACBF3B
:105540009FED1A0A9FED1A0A68EE808A28EE008AFB
:1055500018EE900A18EE101AEEE60000DB0FC9BF35
:10556000DB0FC93FDB0F4940DB0F49C00000C9BF5B
:1055700022AAFDB90000C93F22AAFD390060ED3E14
:10558000C30ACE3700000000000049C022AA7DBA3D
:105590000000494022AA7D3A2DAD65BD8FB8D53DAA
:1055A0000FB511BE61C84C3EA8AAAABE0000804F2C
:1055B0000000802F10B54FF00E412DED028BB0EEA4
:1055C000408A18EE100A01EB4001B1F1145F5CD281
:1055D0004FF0FE41B1EB400F24BF9FED400AF0EECB
:1055E000400A12D210F0004F19BFDFED3D0A9FEDC7
:1055F0003D0ADFED3D0A9FED3D0AFFEE001A81EE08
:10560000881AB0EE418A18EE100A4FF0FC41B1EB57
:10561000400F1BD210F0004FDFED351A9FED352AF9
:105620001DBFBEEE001A70EEE10A30EE420AB6EE81
:10563000001A04BF70EEA10A30EE020A38EE412AC9
:10564000F7EE001A48EE011A82EE218ADFED2A1ADF
:105650009FED2A2A28EE081A01EE212ADFED281AEA
:1056600041EE021A9FED272A01EE212ADFED261ACC
:1056700041EE021A28EE011A01EE210A30EE080A64
:10568000BDEC028B30EE200A10BD4FF0E441B1EBCF
:10569000400F0CD918EE100AFFF713FE042808BFBC
:1056A00000F018FDB0EE480ABDEC028B10BD4FF0C3
:1056B0007F41B1EB400F07D2B0EE480ABDEC028B40
:1056C000BDE8104000F0F0BC10F0004F14BF9FED9B
:1056D0000F0A9FED0F0ABDEC028B10BD0000000009
:1056E0000000C9BF22AAFDB90000C93F22AAFD39A6
:1056F0000060ED3EC30ACE372DAD65BD8FB8D53DF8
:105700000FB511BE61C84C3EA8AAAABEDB0FC9BF27
:10571000DB0FC93F10EE101A08B5444A6846B2EBD9
:10572000410F28D94FF0E640B0EB410F94BF002065
:105730004FF0FF3000900098002861DB60EE000A17
:1057400010F0010F45D010F0020FDFED391A9FED78
:10575000391A00EEE11ADFED381A40EE811A21EE17
:10576000A01AF0EE400A40EE010A08BFF1EE600A0E
:10577000B0EE600A08BD314B21F0004293423CD9A3
:1057800011F0004FDFED2E0A20EE201ADFED2D0A7A
:1057900019BF31EE601A71EE200A31EE201A71EE57
:1057A000600ABDEEE01A11EE100A9FED271A00F014
:1057B000030000EEC10A9FED251A009000EEC10A19
:1057C0009FED231A00EEC10A9FED221A00EEC10AD6
:1057D000B1E79FED211A9FED210A10F0020F00EEB4
:1057E000810A9FED1F1A00EE801AB7EE000A00EE44
:1057F000810A18BFB1EE400A08BD00F073FC9AE7B9
:1058000010EE100A4000B0F17F4F3CBFB7EE000A27
:1058100008BD07D14FF00100FBF77CF8BDE8084058
:1058200000F048BCBDE8084000F03EBCB61F927EC8
:10583000336D4C39DA82083CA0AA2ABE490E49468B
:1058400083F9223F0000004B0000C93F00A0FD3952
:105850000020A2331A61342CB93AB2BACA9F2A3D49
:10586000DDFFFFBE10B510EE100A2DED068BB7EE72
:10587000001A10EE901AB0EE418A0022A0F5000C3A
:10588000DFEDFE9A4FF00073BCF1FE4F4FF07F4406
:1058900003EB410C80F0B481BCF1804FC0F020825A
:1058A000F74901449FEDF73AB1F5005F40F2D48229
:1058B00000F58021CB0C03F00F0101EE901AC3F329
:1058C00007137F3BA0EBC350B8EEE12A00EE100AAD
:1058D0001A44DFEDED2AF0EE411A42EE221AF0EE04
:1058E000613A70EE232A30EE632A12EE900A00F538
:1058F00000606FF30B0001EE900A73EEE13A33EEB5
:10590000804AC1EE223A22EE230A10EE100A00F578
:1059100000606FF30B0000EE100A00EE612A00EE4B
:10592000442A62EE232A70EE221A21EEA12ADFED2C
:10593000D73A02EE233A23EE023A20EE012A22EE73
:10594000811A03EE211A32EE010A10EE100A00F558
:1059500000606FF30B0000EE100A72EE401A31EE99
:10596000812A9FEDCB1A60EE011A9FEDCA1A20EE34
:10597000011A9FEDC90A02EE001A31EE810A10EEFB
:10598000100A00F500606FF30B0000EE100AC34828
:1059900071EEC01A31EE812A784400EBC10090ED1F
:1059A000003AD0ED011A100101EE100AF8EEC12AFA
:1059B00032EE211A31EE001A31EE031A31EE221ABC
:1059C00011EE100A00F500606FF30B0009EE100AEB
:1059D00039EE621A31EE431A31EE400A30EE610AB6
:1059E00032EE40AA10EE900A002100F500606FF33D
:1059F0000B0008EE900A084670EEE8AA4FF000008F
:105A000029EE280A00F00C01F0EEC00A10EE900A10
:105A1000B0F18B4F0DDD10EE900AB4EB400F08D3C0
:105A200010EE100A4FF08B4262F31E0008EE900A4F
:105A300013E069EE2A0A38EEAA1A4AEE010A30EE9D
:105A4000201A11EE100A00F500606FF30B0008EE4B
:105A5000900A30EE680A70EE209A0C204FF0000099
:105A600038EEA90AB5EEC00AF1EE10FA34BFFEEE28
:105A7000000AF6EE000A30EE800ABDEEC00A10EE13
:105A8000100A011100EE101AF8EEC00A00EE100A1A
:105A9000B8EEC00A38EEC00A30EE290ADFED801AEF
:105AA0009FED801A00EE211ADFED7F1A7F4900F08A
:105AB0000F0040EE011A21EE800A794401EB8001CB
:105AC00091ED001A7A49794401EB8001D1ED001A79
:105AD000784901EE801A794401EB8000764990ED17
